:100000000C945E000C9486000C9486000C94860080
:100010000C9486000C9486000C9486000C94860048
:100020000C9486000C9486000C9486000C94860038
:100030000C9486000C9486000C9486000C94860028
:100040000C9498010C9486000C94FD000C943B05D4
:100050000C9486000C9486000C9486000C94860008
:100060000C9486000C9486000000000024002700F9
:100070002A0000000000250028002B0004040404CE
:100080000404040402020202020203030303030342
:10009000010204081020408001020408102001021F
:1000A00004081020000000070002010000030406FD
:1000B0000000000000000000C209960911241FBEC4
:1000C000CFEFD8E0DEBFCDBF11E0A0E0B1E0E6EEBB
:1000D000F7E102C005900D92AC32B107D9F722E0EA
:1000E000ACE2B1E001C01D92A03DB207E1F710E023
:1000F000CDE5D0E004C02197FE010E94E00BCC3595
:10010000D107C9F70E9476050C945F0A0C94000091
:100110000895CF92DF92EF92FF920F931F93CF93A8
:10012000DF936C01EB017B01E40EF51E00E010E0B3
:10013000CE15DF0561F06991D601ED91FC9101903A
:10014000F081E02DC6010995080F191FF1CFC801F4
:10015000DF91CF911F910F91FF90EF90DF90CF90A3
:1001600008958E3008F08E508770806480937C00F4
:1001700080917A00806480937A0080917A0086FD75
:10018000FCCF809178002091790090E0922B089527
:100190000F931F938095853560F4682F660F860F47
:1001A000282F209590E0A0E0B0E0BC01CD01822B8B
:1001B00021C08A3A80F48555982F990F980F692F9E
:1001C0006095462F50E060E070E08A019B01192B9A
:1001D000C901B8010FC08A5A682F660F860F282FF1
:1001E000209590E0A0E0B0E0DC0199278827BC01D1
:1001F000CD01722B1F910F9108951F920F920FB690
:100200000F9211242F934F935F938F939F93EF93AC
:10021000FF938091C00082FD1CC02091C600809198
:100220007B0190917C0101968F73992740917D010C
:1002300050917E018417950771F0E0917B01F09158
:100240007C01E55CFE4F208390937C0180937B01D1
:1002500002C08091C600FF91EF919F918F915F91B5
:100260004F912F910F900FBE0F901F901895CF9325
:10027000DF9390E0FC01E057FF4F2491FC01E4582C
:10028000FF4F8491882361F190E0880F991FFC0152
:10029000E859FF4FC591D491FC01EE58FF4FA5914D
:1002A000B491611109C09FB7F89488812095822389
:1002B0008883EC912E230BC0623061F49FB7F894D1
:1002C0003881822F809583238883EC912E2B2C9369
:1002D0009FBF06C08FB7F894E8812E2B28838FBF6D
:1002E000DF91CF9108953FB7F89480912D019091BF
:1002F0002E01A0912F01B091300126B5A89B05C019
:100300002F3F19F00196A11DB11D3FBFBA2FA92F94
:10031000982F8827820F911DA11DB11DBC01CD0111
:1003200042E0660F771F881F991F4A95D1F70895FD
:100330001F920F920FB60F9211242F933F938F931A
:100340009F93AF93BF938091310190913201A0911F
:100350003301B091340130912C0123E0230F2D376C
:1003600020F40196A11DB11D05C026E8230F0296B9
:10037000A11DB11D20932C01809331019093320176
:10038000A0933301B093340180912D0190912E01FF
:10039000A0912F01B09130010196A11DB11D809354
:1003A0002D0190932E01A0932F01B0933001BF91A6
:1003B000AF919F918F913F912F910F900FBE0F9012
:1003C0001F90189590E0FC01EC55FF4F2491FC0123
:1003D000E057FF4F3491FC01E458FF4FE491EE23C6
:1003E000B9F1222339F1233091F038F42130A9F00A
:1003F000223001F584B58F7D12C0263091F0273070
:10040000A1F02430B9F4809180008F7D03C08091E9
:1004100080008F77809380000DC084B58F7784BD76
:1004200009C08091B0008F7703C08091B0008F7DAC
:100430008093B000F0E0EE0FFF1FEE58FF4FA59144
:10044000B4918FB7F894EC9130953E233C938FBFD5
:1004500008950F931F93CF93DF93FC01A685B78573
:100460008D01005C1F4FE8018881998101968F738F
:100470009927AD014E5B5F4FEA01288139818217D0
:100480009307D1F3E80128813981A20FB31F6C9340
:10049000A685B785A05CBF4F11969C938E93A689C5
:1004A000B7892C9181E090E0078C02C0880F991FDA
:1004B0000A94E2F7822B8C9381E081A30488F5896A
:1004C000E02D80818064808381E090E0DF91CF9196
:1004D0001F910F910895FC0181A1882329F0A4891F
:1004E000B5898C9186FFFBCF11A20895FC01A485EC
:1004F000B585FD01E05CFF4F20813181329680811E
:1005000091812817390779F080819181A80FB91F4F
:100510008C91208131812F5F3F4F2F73332731839F
:10052000208390E008958FEF9FEF0895DC011C96E3
:10053000ED91FC911D97DF01A05CBF4F2D913C9187
:10054000119712968D919C9111972817390739F0C0
:100550008D919C91E80FF91F808190E008958FEFB5
:100560009FEF0895FC0124853585F901E05CFF4F7C
:1005700080819181329620813181821B930B8F7310
:10058000992708958FE791E00C94B2028F929F9281
:10059000AF92BF92EF92FF920F931F93CF93DF938F
:1005A000CDB7DEB7A1970FB6F894DEBF0FBECDBFB3
:1005B000162F042F19A2423008F40AE07E0121E22E
:1005C000E20EF11C802E912CA12CB12C612FA501E3
:1005D00094010E94AA0B029F1019112481E0E81ACD
:1005E000F1081A3014F4105D01C0195CF701108392
:1005F000122F732FCA01232B242B252B39F7E1143B
:10060000F10469F001900020E9F73197AF014E192C
:100610005F09B7018FE791E00E94890002C080E086
:1006200090E0A1960FB6F894DEBF0FBECDBFDF916C
:10063000CF911F910F91FF90EF90BF90AF909F903F
:100640008F900895CF92DF92EF92FF921F93CF93F6
:10065000DF93EC017B01142F19821F821E861F86F7
:10066000188A198AC90146E0969587954A95E1F757
:10067000482F43704D87C90154E0969587955A9548
:10068000E1F783708A87B9017695679576956795C6
:1006900063706B87922F93709C8791E02F3F310599
:1006A00011F008F090E09883481719F084E090E08A
:1006B00002C083E090E08E9D60018F9DD00C9E9DD6
:1006C000D00C1124DD82CC82C6010E94620A998777
:1006D0008887009741F0A60160E070E00E948F0BD0
:1006E000FB82EA8204C01D821C821B821A821E8346
:1006F0008981882339F061E0812F0E943701812FA1
:100700000E94E201812F90E0FC01E458FF4FE49148
:10071000F0E0EE0FFF1FEE58FF4F259134913B8B19
:100720002A8BFC01E057FF4FE491EC8BDF91CF91D6
:100730001F91FF90EF90DF90CF900895E0917F019F
:10074000F09180010190F081E02D682F8FE791E01A
:100750000994CF92DF92EF92FF92CF93DF936C01D7
:10076000990FEE08FF08F7FE12C08DE20E949E036B
:10077000EC0166277727CB016C197D098E099F094B
:100780004AE00E94C6027C01EC0EFD1E06C04AE053
:10079000C701B6010E94C6027C018DE00E949E0343
:1007A000EC018AE00E949E03EC0EFD1E8E0D9F1D43
:1007B000DF91CF91FF90EF90DF90CF9008958F92CF
:1007C0009F92AF92BF92CF92DF92EF92FF920F93E0
:1007D0001F93CF93DF93FC01828193816817790780
:1007E00008F04CC04A01AA24BB24B82DC32ED42E35
:1007F000E52EFF24AC2D922F8781882361F0889EFF
:1008000040011124B92DC89E60011124AD2D289FEF
:10081000E00111249D2FD584C285E084F184DC128F
:1008200008C09B01220F331F620F731F6E0D7F1DC7
:1008300016C0660F771F660F771F6E0D7F1D052F81
:10084000112722273327EB01CD0DD11D882329F055
:10085000089F90011124232F01C0202F2883828517
:10086000EB01C80FD11DB8838385EB01C80FD11DE3
:10087000A8838485FB01E80FF11D9083DF91CF9160
:100880001F910F91FF90EF90DF90CF90BF90AF90AE
:100890009F908F900895CF92DF92EF92FF920F93E7
:1008A0001F93CF93DF93CDB7DEB729970FB6F89498
:1008B000DEBF0FBECDBF8C01DC0118968D919C91DF
:1008C0001997892B09F4A3C00E947301F801C6840B
:1008D000D784E088F188DC01CB018C199D09AE0931
:1008E000BF098C329140A105B10570F3F894D8018D
:1008F00014968D919C9115979A8389831896ED9102
:10090000FC9119977F01BFEFEB1AFB0A8081898761
:10091000F80190810288F389E02DD80154968C91DA
:10092000992309F430C09081982B98879081809505
:1009300089238F838F818C8388E08B8358856F8197
:1009400049853B812C8189819A81D701508347FD5C
:10095000252F3A952083262F39F0441F00C0000030
:100960006083000000C0F2CF38E04D91608300004A
:10097000019761F7D8015396FC93EE9352974987FC
:100980003B832C833AC09081982B988790818095E7
:1009900089238F838F818E8388E08D8358856F8133
:1009A00049853D812E8189819A81D701508347FDF8
:1009B000252F00C000C0208300C000C000C000C0C0
:1009C00000C060830000262F3A9541F0441F0000CC
:1009D00000C000C000C000C000C0E8CF38E04D91AA
:1009E00000C0608300C0019709F7D8015396FC93BB
:1009F000EE93529749873D832E839A838983789417
:100A00000E947301F80166877787808B918B299606
:100A10000FB6F894DEBF0FBECDBFDF91CF911F910F
:100A20000F91FF90EF90DF90CF900895CF93DF93D9
:100A3000EC018E8187FD06C061E00E9437018E8146
:100A40000E94E20181E08983DF91CF910895CF93E5
:100A5000DF93EC0188859985009711F00E94F70AD1
:100A60008E8187FD05C060E0DF91CF910C94370146
:100A7000DF91CF9108951F920F920FB60F9211241C
:100A80002F933F938F939F93EF93FF932091C802EF
:100A90003091C9028091CA029091CB022817390780
:100AA00031F48091C1008F7D8093C10014C0E0912A
:100AB000CA02F091CB02E857FD4F20818091CA0213
:100AC0009091CB0201968F7399279093CB028093DC
:100AD000CA022093C600FF91EF919F918F913F91A1
:100AE0002F910F900FBE0F901F901895CF93DF930B
:100AF00000D000D0CDB7DEB7789484B5826084BDD5
:100B000084B5816084BD85B5826085BD85B5816011
:100B100085BD80916E00816080936E00109281008F
:100B2000809181008260809381008091810081604A
:100B3000809381008091800081608093800080910B
:100B4000B10084608093B1008091B0008160809397
:100B5000B00080917A00846080937A0080917A005E
:100B6000826080937A0080917A00816080937A001D
:100B700080917A00806880937A001092C10060E0D2
:100B80008FE00E94370160E083E10E94370183E734
:100B900092E00E9416058EE592E00E94160589E417
:100BA00092E00E94160584E392E00E9416058FE110
:100BB00092E00E9416058AE092E00E94160585EFF9
:100BC00091E00E94160580EE91E00E9416058BECE4
:100BD00091E00E94160586EB91E00E94160581EADD
:100BE00091E00E941605E0919301F091940181E05B
:100BF00090E09C0100909F0102C0220F331F0A94D5
:100C0000E2F72083E0918F01F09190011082E09152
:100C10009101F09192012FEC20831092A001E091BC
:100C20009501F091960140819C0100909B0102C0CA
:100C3000220F331F0A94E2F7242B2083E0919501C1
:100C4000F091960140819C0100909C0102C0220F0E
:100C5000331F0A94E2F7242B2083E0919501F09151
:100C6000960140819C0100909D0102C0220F331F1C
:100C70000A94E2F7242B2083E0919501F0919601EC
:100C8000208100909E0102C0880F991F0A94E2F70C
:100C900080958223808345E150E066E171E08FE733
:100CA00091E00E9489008DE00E949E038AE00E94EC
:100CB0009E030AE0202E312C8FB7F8944091310129
:100CC0005091320160913301709134018FBF8FE0F8
:100CD0000E94B1008C0190933A018093390183E125
:100CE0000E94B100909338018093370180913501C3
:100CF00090913601892B21F4109336010093350130
:100D000080913501909136010E94A90380913901AB
:100D100090913A010E94A903809137019091380186
:100D20008F3521E092070CF087C0809139019091B6
:100D30003A012091350130913601821B930B97FFC8
:100D400003C09195819591098C0115950795C8016E
:100D50000E94A903C801B1010E94960B9A8389835E
:100D60001CE3812E912CA12CB12C412C512C320151
:100D700000E010E089819A81081719070CF0B2C0D1
:100D80007201DD24CC24BA2DA92D982D8827C82ADC
:100D9000D92AEA2AFB2AC828D928EA28FB28C1012F
:100DA000801B910B9C838B83A7019601BC0185EF6F
:100DB00091E00E94DF03A70196016B817C8180EEA8
:100DC00091E00E94DF03A70196016B817C818BEC8F
:100DD00091E00E94DF03A70196016B817C8186EB85
:100DE00091E00E94DF03A70196016B817C8181EA7B
:100DF00091E00E94DF0385EF91E00E944B0480EEBA
:100E000091E00E944B048BEC91E00E944B0486EB36
:100E100091E00E944B0481EA91E00E944B040F5F35
:100E20001F4F94E1490E511C611C711CE5E08E1AA4
:100E30009108A108B1089ECF8F5591408E35914001
:100E400008F067C010E065EF71E0812F0E94C800D4
:100E50006B017C01A12CB12CA7019601B50185EF96
:100E600091E00E94DF0360EE71E0812F0E94C800D4
:100E70009B01AC01B50180EE91E00E94DF036BECB9
:100E800071E0812F0E94C8009B01AC01B5018BEC81
:100E900091E00E94DF0366EB71E0812F0E94C800A1
:100EA0009B01AC01B50186EB91E00E94DF03FFEFEF
:100EB000AF1ABF0A2AE0A216B10471F685EF91E0DD
:100EC0000E944B0480EE91E00E944B048BEC91E079
:100ED0000E944B0486EB91E00E944B041F5F1F3F72
:100EE00009F0B1CF8091390190913A0120913501FB
:100EF00030913601821B930B63E070E00E94960BE9
:100F00008B017CE3772EE4E65E2E612C1A82198237
:100F1000E7C02091390130913A01809135019091DB
:100F20003601281B390BC90163E070E00E94960B63
:100F30008B01C9010E94A903E12CF12C2CE33CE3B5
:100F400040E050E0B70185EF91E00E94DF032CE321
:100F50003CE340E050E0B70180EE91E00E94DF0307
:100F60002CE33CE340E050E0B7018BEC91E00E94C1
:100F7000DF032CE33CE340E050E0B70186EB91E077
:100F80000E94DF032CE33CE340E050E0B70181EA3C
:100F900091E00E94DF038FEFE81AF80A9AE0E91661
:100FA000F10461F6C80117FF03C09195819591097D
:100FB000B1010E94960B8C016CE3862E912CA12C22
:100FC000B12C412C512C4016510609F48BCF38E737
:100FD000C32ED12CE12CF12CC818D908EA08FB0843
:100FE000FE2CED2CDC2CCC24D40199278827C82A90
:100FF000D92AEA2AFB2AA701960160E070E080EE78
:1010000091E00E94DF03A701960160E070E08BECA5
:1010100091E00E94DF03A701960161E070E08BEC94
:1010200091E00E94DF03A701960160E070E086EB8B
:1010300091E00E94DF03A701960161E070E086EB7A
:1010400091E00E94DF03A701960162E070E086EB69
:1010500091E00E94DF033201A7019601B20185EF02
:1010600091E00E94DF03EFEF4E1A5E0AA70196019E
:10107000B20180EE91E00E94DF03B2016F5F7F4F0B
:10108000A70196018BEC91E00E94DF03B2016E5F35
:101090007F4FA701960186EB91E00E94DF03A70135
:1010A0009601B30181EA91E00E94DF0385EF91E0B0
:1010B0000E944B0480EE91E00E944B048BEC91E087
:1010C0000E944B0486EB91E00E944B0481EA91E080
:1010D0000E944B04F5E08F1A9108A108B10873CF64
:1010E00089819A81801791070CF06EC0C62CD12C93
:1010F000E12CF12C7601DD24CC2446015701852812
:10110000A501940169817A8183E792E00E94DF035F
:10111000A501940169817A818EE592E00E94DF0346
:10112000472D50E060E070E0B62FA52F942F882760
:10113000C82AD92AEA2AFB2AC42AD52AE62AF72A63
:10114000A701960169817A8189E492E00E94DF0318
:10115000A701960169817A8184E392E00E94DF030E
:10116000A501940169817A818FE192E00E94DF03F9
:10117000A501940169817A818AE092E00E94DF03EF
:1011800083E792E00E944B048EE592E00E944B04BC
:1011900089E492E00E944B0484E392E00E944B04B5
:1011A0008FE192E00E944B048AE092E00E944B049F
:1011B00089819A8101969A83898398E2690EEEEC7F
:1011C0005E0EF6EF7F0E8CCF0E9473018B018EE1D5
:1011D000C82ED12CE12CF12C0E947301601B710BE5
:1011E000683E734038F0E1E0CE1AD108E108F1081A
:1011F00008511C4FC114D104E104F10469F700E067
:1012000010E020E030E0A901B80183E792E00E94FD
:10121000DF0320E030E0A901B8018EE592E00E94F2
:10122000DF0320E030E0A901B80189E492E00E94E8
:10123000DF0320E030E0A901B80184E392E00E94DE
:10124000DF0320E030E0A901B8018FE192E00E94C5
:10125000DF0320E030E0A901B8018AE092E00E94BB
:10126000DF0383E792E00E944B048EE592E00E9448
:101270004B0489E492E00E944B0484E392E00E94D4
:101280004B048FE192E00E944B048AE092E00E94BE
:101290004B040F5F1F4F0630110509F0B2CF00E07D
:1012A00010E020E030E0A901B80185EF91E00E9454
:1012B000DF0320E030E0A901B80180EE91E00E9458
:1012C000DF0320E030E0A901B8018BEC91E00E943F
:1012D000DF0320E030E0A901B80186EB91E00E9435
:1012E000DF0320E030E0A901B80181EA91E00E942B
:1012F000DF0385EF91E00E944B0480EE91E00E94B5
:101300004B048BEC91E00E944B0486EB91E00E9431
:101310004B0481EA91E00E944B040F5F1F4F0A309B
:10132000110509F0BECF0E94C202C6CC81EA91E04D
:101330000E94270586EB91E00E9427058BEC91E047
:101340000E94270580EE91E00E94270585EF91E03D
:101350000E9427058AE092E00E9427058FE192E033
:101360000E94270584E392E00E94270589E492E029
:101370000E9427058EE592E00E94270583E792E010
:101380000C942705EFE7F1E01382128288EE93E0D8
:10139000A0E0B0E084839583A683B7838AE091E0E0
:1013A000918380838BE391E09587848788E892E03E
:1013B0009787868785EC90E0918B808B84EC90E01A
:1013C000938B828B80EC90E0958B848B81EC90E00A
:1013D000978B868B82EC90E0918F808F86EC90E0EB
:1013E000938F828F84E0848F83E0858F87E0868F60
:1013F00085E0878F81E080A322E530E040E066E071
:1014000070E083E792E00E94220322E530E041E0B1
:1014100066E070E08EE592E00E94220322E530E073
:1014200042E066E070E089E492E00E94220322E557
:1014300030E046E066E070E084E392E00E94220340
:1014400022E530E047E066E070E08FE192E00E9444
:10145000220322E530E048E066E070E08AE092E0B6
:101460000E94220322E530E04AE06AE070E085EF66
:1014700091E00E94220322E530E04BE06AE070E058
:1014800080EE91E00E94220322E530E04CE06AE029
:1014900070E08BEC91E00E94220322E530E04DE009
:1014A0006AE070E086EB91E00E94220322E530E0E2
:1014B00049E06AE070E081EA91E00C942203F8943C
:1014C0000C94E60BCF93DF938230910510F482E009
:1014D00090E0E091CE02F091CF0220E030E0C0E059
:1014E000D0E0309711F14081518148175907C0F081
:1014F0004817590761F482819381209719F09B83E3
:101500008A832BC09093CF028093CE0226C02115F0
:10151000310519F04217530718F49A01BE01DF0193
:10152000EF010280F381E02DDCCF2115310509F1B7
:10153000281B390B2430310590F412968D919C9123
:1015400013976115710521F0FB019383828304C019
:101550009093CF028093CE02FD01329644C0FD01EC
:10156000E20FF31F81939193225031092D933C9305
:101570003AC02091CC023091CD02232B41F420912E
:101580000201309103013093CD022093CC022091CF
:101590000001309101012115310541F42DB73EB70D
:1015A0004091040150910501241B350BE091CC02C0
:1015B000F091CD02E217F307A0F42E1B3F0B281782
:1015C000390778F0AC014E5F5F4F2417350748F0BC
:1015D0004E0F5F1F5093CD024093CC0281939193A5
:1015E00002C0E0E0F0E0CF01DF91CF9108950F93CA
:1015F0001F93CF93DF93009709F48CC0FC013297BF
:10160000138212820091CE021091CF0201151105B2
:1016100081F420813181820F931F2091CC0230917F
:10162000CD022817390779F5F093CD02E093CC026B
:1016300071C0D80140E050E0AE17BF0750F41296D9
:101640002D913C911397AD012115310509F1D90177
:10165000F3CF9D01DA013383228360817181860F8C
:10166000971F8217930769F4EC0128813981260FAF
:10167000371F2E5F3F4F318320838A819B81938365
:101680008283452B29F4F093CF02E093CE0242C02F
:101690001396FC93EE931297ED01499159919E0197
:1016A000240F351FE217F30771F480819181840FB5
:1016B000951F029611969C938E9382819381139627
:1016C0009C938E931297E0E0F0E0D80112968D91F2
:1016D0009C911397009719F0F8018C01F6CF8D912A
:1016E0009C9198012E5F3F4F820F931F2091CC0257
:1016F0003091CD022817390769F4309729F41092F8
:10170000CF021092CE0202C0138212821093CD0239
:101710000093CC02DF91CF911F910F910895DC01CE
:1017200001C06D9341505040E0F7089597FB072E9C
:1017300016F4009407D077FD09D00E94CC0B07FC6B
:1017400005D03EF4909581959F4F089570956195D1
:101750007F4F0895A1E21A2EAA1BBB1BFD010DC0ED
:10176000AA1FBB1FEE1FFF1FA217B307E407F50751
:1017700020F0A21BB30BE40BF50B661F771F881F2D
:10178000991F1A9469F760957095809590959B01C3
:10179000AC01BD01CF010895AA1BBB1B51E107C0DD
:1017A000AA1FBB1FA617B70710F0A61BB70B881FF1
:1017B000991F5A95A9F780959095BC01CD01089580
:1017C000EE0FFF1F0590F491E02D099410E0CDE598
:1017D000D0E004C0FE010E94E00B2196CE35D10777
:0617E000C9F7F894FFCFE9
:1017E6000000D00220000000000029028900B20299
:1017F600760296026B02737461727420736F756E53
:0C1806006420646574656374696F6E0093
:00000001FF
