:100000000C945E000C9486000C9486000C94860080
:100010000C9486000C9486000C9486000C94860048
:100020000C9486000C9486000C9486000C94860038
:100030000C9486000C9486000C9486000C94860028
:100040000C94E3040C9486000C94A9040C946E04A4
:100050000C9486000C9486000C9486000C94860008
:100060000C9486000C9486000000000024002700F9
:100070002A0000000000250028002B0004040404CE
:100080000404040402020202020203030303030342
:10009000010204081020408001020408102001021F
:1000A00004081020000000070002010000030406FD
:1000B00000000000000000002D059C0711241FBE59
:1000C000CFEFD8E0DEBFCDBF11E0A0E0B1E0E0E9C6
:1000D000F2E102C005900D92AA33B107D9F722E0F0
:1000E000AAE3B1E001C01D92A337B207E1F710E027
:1000F000CDE5D0E004C02197FE010E943509CC3542
:10010000D107C9F70E949D050C94B4070C94000018
:1001100090E0FC01EC55FF4F2491FC01E057FF4FAC
:100120003491FC01E458FF4FE491EE23B9F122230E
:1001300039F1233091F038F42130A9F0223001F563
:1001400084B58F7D12C0263091F02730A1F0243085
:10015000B9F4809180008F7D03C0809180008F77FB
:10016000809380000DC084B58F7784BD09C08091D5
:10017000B0008F7703C08091B0008F7D8093B00076
:10018000F0E0EE0FFF1FEE58FF4FA591B4918FB72F
:10019000F894EC9130953E233C938FBF0895E09105
:1001A000CF01F091D0010190F081E02D682F8FEC0C
:1001B00091E009948F929F92AF92BF92CF92DF927B
:1001C000EF92FF920F931F93CF93DF93FC018281F5
:1001D00093816817790708F04CC04A01AA24BB2410
:1001E000B82DC32ED42EE52EFF24AC2D922F87815F
:1001F000882361F0889E40011124B92DC89E6001BA
:100200001124AD2D289FE00111249D2FD584C28596
:10021000E084F184DC1208C09B01220F331F620FBF
:10022000731F6E0D7F1D16C0660F771F660F771F39
:100230006E0D7F1D052F112722273327EB01CD0DD2
:10024000D11D882329F0089F90011124232F01C07C
:10025000202F28838285EB01C80FD11DB8838385A9
:10026000EB01C80FD11DA8838485FB01E80FF11DA8
:100270009083DF91CF911F910F91FF90EF90DF90CE
:10028000CF90BF90AF909F908F9008950F931F9342
:10029000CF93DF93FC01A685B7858D01005C1F4FCE
:1002A000E8018881998101968F739927AD014E5B92
:1002B0005F4FEA012881398182179307D1F3E80162
:1002C00028813981A20FB31F6C93A685B785A05CE6
:1002D000BF4F11969C938E93A689B7892C9181E08C
:1002E00090E0078C02C0880F991F0A94E2F7822BD6
:1002F0008C9381E081A30488F589E02D808180645E
:10030000808381E090E0DF91CF911F910F9108955C
:10031000FC0181A1882329F0A489B5898C9186FFED
:10032000FBCF11A20895FC01A485B585FD01E05C19
:10033000FF4F2081318132968081918128173907C2
:1003400079F080819181A80FB91F8C912081318132
:100350002F5F3F4F2F7333273183208390E0089521
:100360008FEF9FEF0895DC011C96ED91FC911D9796
:10037000DF01A05CBF4F2D913C91119712968D919A
:100380009C9111972817390739F08D919C91E80FAE
:10039000F91F808190E008958FEF9FEF0895FC0191
:1003A00024853585F901E05CFF4F8081918132968B
:1003B00020813181821B930B8F73992708958FECD5
:1003C00091E00C94CF010895CF92DF92EF92FF92CB
:1003D0000F931F93CF93DF936C01EB017B01E40E2E
:1003E000F51E00E010E0CE15DF0561F06991D60141
:1003F000ED91FC910190F081E02DC6010995080F67
:10040000191FF1CFC801DF91CF911F910F91FF907C
:10041000EF90DF90CF900895CF93DF9390E0FC01B1
:10042000E057FF4F2491FC01E458FF4F849188234B
:1004300061F190E0880F991FFC01E859FF4FC591C9
:10044000D491FC01EE58FF4FA591B491611109C000
:100450009FB7F8948881209582238883EC912E237E
:100460000BC0623061F49FB7F8943881822F809579
:1004700083238883EC912E2B2C939FBF06C08FB7CC
:10048000F894E8812E2B28838FBFDF91CF910895B8
:10049000CF93DF93EC018E8187FD06C061E00E945F
:1004A0000C028E810E94880081E08983DF91CF91C8
:1004B00008953FB7F89480913B0190913C01A09141
:1004C0003D01B0913E0126B5A89B05C02F3F19F014
:1004D0000196A11DB11D3FBFBA2FA92F982F8827C4
:1004E000820F911DA11DB11DBC01CD0142E0660F1F
:1004F000771F881F991F4A95D1F70895CF92DF92F1
:10050000EF92FF920F931F93CF93DF93CDB7DEB798
:1005100029970FB6F894DEBF0FBECDBF8C01DC016A
:1005200018968D919C911997892B09F4A3C00E946C
:100530005902F801C684D784E088F188DC01CB0138
:100540008C199D09AE09BF098C329140A105B105F6
:1005500070F3F894D80114968D919C9115979A8315
:1005600089831896ED91FC9119977F01BFEFEB1AE3
:10057000FB0A80818987F80190810288F389E02D48
:10058000D80154968C91992309F430C09081982B0E
:1005900098879081809589238F838F818C8388E0D1
:1005A0008B8358856F8149853B812C8189819A8114
:1005B000D701508347FD252F3A952083262F39F008
:1005C000441F00C000006083000000C0F2CF38E08C
:1005D0004D9160830000019761F7D8015396FC9319
:1005E000EE93529749873B832C833AC09081982B96
:1005F00098879081809589238F838F818E8388E06F
:100600008D8358856F8149853D812E8189819A81AD
:10061000D701508347FD252F00C000C0208300C0B4
:1006200000C000C000C000C060830000262F3A95C3
:1006300041F0441F000000C000C000C000C000C066
:10064000E8CF38E04D9100C0608300C0019709F702
:10065000D8015396FC93EE93529749873D832E839E
:100660009A83898378940E945902F8016687778774
:10067000808B918B29960FB6F894DEBF0FBECDBF4D
:10068000DF91CF911F910F91FF90EF90DF90CF906E
:100690000895009769F0FC0101900020E9F7319777
:1006A000AF01481B590BBC018FEC91E00C94E401A5
:1006B00080E090E008958F929F92AF92BF92EF9268
:1006C000FF920F931F93CF93DF93CDB7DEB7A19720
:1006D0000FB6F894DEBF0FBECDBF162F042F19A2A0
:1006E000423008F40AE07E0121E2E20EF11C802E85
:1006F000912CA12CB12C612FA50194010E94FF081F
:10070000029F1019112481E0E81AF1081A3014F43C
:10071000105D01C0195CF7011083122F732FCA01FD
:10072000232B242B252B39F7C7010E944903A196BF
:100730000FB6F894DEBF0FBECDBFDF91CF911F91F2
:100740000F91FF90EF90BF90AF909F908F90089582
:10075000CF92DF92EF92FF92CF93DF936C01990FCC
:10076000EE08FF08F7FE12C08DE20E94CF00EC01F8
:1007700066277727CB016C197D098E099F094AE00E
:100780000E945B037C01EC0EFD1E06C04AE0C7011F
:10079000B6010E945B037C018DE00E94CF00EC015A
:1007A0008AE00E94CF00EC0EFD1E8E0D9F1DDF9192
:1007B000CF91FF90EF90DF90CF900895CF93DF938C
:1007C000EC0188859985009711F00E944C088E8174
:1007D00087FD05C060E0DF91CF910C940C02DF91A2
:1007E000CF910895CF92DF92EF92FF921F93CF9314
:1007F000DF93EC017B01142F19821F821E861F8656
:10080000188A198AC90146E0969587954A95E1F7B5
:10081000482F43704D87C90154E0969587955A95A6
:10082000E1F783708A87B901769567957695679524
:1008300063706B87922F93709C8791E02F3F3105F7
:1008400011F008F090E09883481719F084E090E0E8
:1008500002C083E090E08E9D60018F9DD00C9E9D34
:10086000D00C1124DD82CC82C6010E94B707998783
:100870008887009741F0A60160E070E00E94E408DC
:10088000FB82EA8204C01D821C821B821A821E83A4
:100890008981882339F061E0812F0E940C02812F29
:1008A0000E948800812F90E0FC01E458FF4FE49102
:1008B000F0E0EE0FFF1FEE58FF4F259134913B8B78
:1008C0002A8BFC01E057FF4FE491EC8BDF91CF9135
:1008D0001F91FF90EF90DF90CF9008951F920F929D
:1008E0000FB60F9211242F933F938F939F93EF9303
:1008F000FF93209187013091880180918901909127
:100900008A012817390731F48091C1008F7D8093C7
:10091000C10014C0E0918901F0918A01E95BFE4FAA
:1009200020818091890190918A0101968F73992786
:1009300090938A01809389012093C600FF91EF91E3
:100940009F918F913F912F910F900FBE0F901F900D
:1009500018951F920F920FB60F9211242F934F9359
:100960005F938F939F93EF93FF938091C00082FDDD
:100970001CC02091C6008091CB019091CC010196C2
:100980008F7399274091CD015091CE01841795071F
:1009900071F0E091CB01F091CC01E557FE4F20833F
:1009A0009093CC018093CB0102C08091C600FF914F
:1009B000EF919F918F915F914F912F910F900FBE6B
:1009C0000F901F9018951F920F920FB60F9211243F
:1009D0002F933F938F939F93AF93BF9380913F014A
:1009E00090914001A0914101B091420130913A01B2
:1009F00023E0230F2D3720F40196A11DB11D05C062
:100A000026E8230F0296A11DB11D20933A01809381
:100A10003F0190934001A0934101B0934201809126
:100A20003B0190913C01A0913D01B0913E010196A6
:100A3000A11DB11D80933B0190933C01A0933D010A
:100A4000B0933E01BF91AF919F918F913F912F91B4
:100A50000F900FBE0F901F901895EFECF1E01382EE
:100A6000128288EE93E0A0E0B0E084839583A683B1
:100A7000B7838AE091E0918380838BE891E095874A
:100A8000848787E491E09787868785EC90E0918B57
:100A9000808B84EC90E0938B828B80EC90E0958B44
:100AA000848B81EC90E0978B868B82EC90E0918F29
:100AB000808F86EC90E0938F828F84E0848F83E038
:100AC000858F87E0868F85E0878F81E080A322E590
:100AD00030E040E066E070E08AE592E00E94F203D8
:100AE00022E530E041E066E070E085E492E00E94BB
:100AF000F20322E530E042E066E070E080E392E05D
:100B00000E94F20322E530E046E066E070E08BE10F
:100B100092E00E94F20322E530E047E066E070E0F8
:100B200086E092E00E94F20322E530E048E066E0D1
:100B300070E081EF91E00C94F203CF93DF9300D04B
:100B400000D01F92CDB7DEB7789484B5826084BDA3
:100B500084B5816084BD85B5826085BD85B58160C1
:100B600085BD80916E00816080936E00109281003F
:100B700080918100826080938100809181008160FA
:100B800080938100809180008160809380008091BB
:100B9000B10084608093B1008091B0008160809347
:100BA000B00080917A00846080937A0080917A000E
:100BB000826080937A0080917A00816080937A00CD
:100BC00080917A00806880937A001092C10060E082
:100BD0008FE00E940C028AE592E00E94480285E4C0
:100BE00092E00E94480280E392E00E9448028BE17A
:100BF00092E00E94480286E092E00E94480281EF63
:100C000091E00E944802E091E301F091E40181E06B
:100C100090E09C010090EF0102C0220F331F0A9464
:100C2000E2F72083E091DF01F091E0011082E09192
:100C3000E101F091E2012FEC20831092F001E091AC
:100C4000E501F091E60140819C010090EB0102C0BA
:100C5000220F331F0A94E2F7242B2083E091E50151
:100C6000F091E60140819C010090EC0102C0220F4E
:100C7000331F0A94E2F7242B2083E091E501F091E1
:100C8000E60140819C010090ED0102C0220F331F5C
:100C90000A94E2F7242B2083E091E501F091E6012C
:100CA00020810090EE0102C0880F991F0A94E2F79C
:100CB00080958223808386E191E00E9449038DE044
:100CC0000E94CF008AE00E94CF0033E0232E312C17
:100CD0008FB7F89440913F015091400160914101DC
:100CE000709142018FBF21E420937C0080917A00B3
:100CF000806480937A0080917A00982F9074998311
:100D000086FDF9CF809178002091790090E0922BB8
:100D10009093460180934501209143013091440115
:100D2000232B21F490934401809343010E94A80354
:100D3000E0904501F090460180914301909144017B
:100D4000E81AF90AC701B1010E94EB088B018CE295
:100D500091E00E944903C7010E94A803ECE3EA83E3
:100D6000F4E6FB831D821C828C819D818017910794
:100D70000CF074C02981C22ED12CE12CF12C36014B
:100D800055244424530142018B81882AA5019401F2
:100D90006C817D818AE592E00E94DA00A5019401D0
:100DA0006C817D8185E492E00E94DA00EA818E2FD9
:100DB00090E0A0E0B0E0CC24D82EE92EFA2EC42892
:100DC000D528E628F728C82AD92AEA2AFB2AA70123
:100DD00096016C817D8180E392E00E94DA00A70198
:100DE00096016C817D818BE192E00E94DA00A50181
:100DF00094016C817D8186E092E00E94DA00A50179
:100E000094016C817D8181EF91E00E94DA008AE596
:100E100092E00E947E0285E492E00E947E0280E3DE
:100E200092E00E947E028BE192E00E947E0286E0C8
:100E300092E00E947E0281EF91E00E947E028C810E
:100E40009D8101969D838C839981985D9983EB8127
:100E5000E253EB83FA81FA50FA8386CF0E9459025B
:100E60008B018EE1C82ED12CE12CF12C0E9459026D
:100E7000601B710B683E734038F0E1E0CE1AD10878
:100E8000E108F10808511C4FC114D104E104F10438
:100E900069F700E010E020E030E0A901B8018AE540
:100EA00092E00E94DA0020E030E0A901B80185E478
:100EB00092E00E94DA0020E030E0A901B80180E36E
:100EC00092E00E94DA0020E030E0A901B8018BE155
:100ED00092E00E94DA0020E030E0A901B80186E04B
:100EE00092E00E94DA0020E030E0A901B80181EF31
:100EF00091E00E94DA008AE592E00E947E0285E499
:100F000092E00E947E0280E392E00E947E028BE1EA
:100F100092E00E947E0286E092E00E947E0281EFD3
:100F200091E00E947E020F5F1F4F0630110509F00D
:100F3000B2CF0E94DF01CCCE81EF91E00E94DE03B0
:100F400086E092E00E94DE038BE192E00E94DE03E5
:100F500080E392E00E94DE0385E492E00E94DE03DB
:100F60008AE592E00C94DE03F8940C943B09CF934D
:100F7000DF938230910510F482E090E0E0917102FD
:100F8000F091720220E030E0C0E0D0E0309711F143
:100F90004081518148175907C0F04817590761F43B
:100FA00082819381209719F09B838A832BC0909331
:100FB00072028093710226C02115310519F0421783
:100FC000530718F49A01BE01DF01EF010280F3819B
:100FD000E02DDCCF2115310509F1281B390B243018
:100FE000310590F412968D919C91139761157105BE
:100FF00021F0FB019383828304C09093720280935B
:101000007102FD01329644C0FD01E20FF31F81938E
:101010009193225031092D933C933AC020916F0255
:1010200030917002232B41F4209102013091030191
:101030003093700220936F022091000130910101E2
:101040002115310541F42DB73EB74091040150916F
:101050000501241B350BE0916F02F0917002E2173D
:10106000F307A0F42E1B3F0B2817390778F0AC01CB
:101070004E5F5F4F2417350748F04E0F5F1F5093A8
:10108000700240936F028193919302C0E0E0F0E020
:10109000CF01DF91CF9108950F931F93CF93DF93EB
:1010A000009709F48CC0FC013297138212820091E0
:1010B0007102109172020115110581F420813181B4
:1010C000820F931F20916F02309170022817390709
:1010D00079F5F0937002E0936F0271C0D80140E09F
:1010E00050E0AE17BF0750F412962D913C91139724
:1010F000AD012115310509F1D901F3CF9D01DA01C7
:101100003383228360817181860F971F8217930733
:1011100069F4EC0128813981260F371F2E5F3F4F7C
:10112000318320838A819B8193838283452B29F499
:10113000F0937202E093710242C01396FC93EE9317
:101140001297ED01499159919E01240F351FE21725
:10115000F30771F480819181840F951F0296119697
:101160009C938E938281938113969C938E93129776
:10117000E0E0F0E0D80112968D919C9113970097D2
:1011800019F0F8018C01F6CF8D919C9198012E5F9A
:101190003F4F820F931F20916F02309170022817EA
:1011A000390769F4309729F4109272021092710293
:1011B00002C0138212821093700200936F02DF91BB
:1011C000CF911F910F910895DC0101C06D934150A3
:1011D0005040E0F7089597FB072E16F4009407D0CF
:1011E00077FD09D00E94210907FC05D03EF49095B7
:1011F00081959F4F0895709561957F4F0895A1E265
:101200001A2EAA1BBB1BFD010DC0AA1FBB1FEE1F80
:10121000FF1FA217B307E407F50720F0A21BB30BCB
:10122000E40BF50B661F771F881F991F1A9469F747
:1012300060957095809590959B01AC01BD01CF01A3
:101240000895AA1BBB1B51E107C0AA1FBB1FA6170D
:10125000B70710F0A61BB70B881F991F5A95A9F75F
:1012600080959095BC01CD010895EE0FFF1F05906C
:10127000F491E02D099410E0CDE5D0E004C0FE012A
:101280000E9435092196CE35D107C9F7F894FFCFD2
:10129000000073022000000000004601E401CF01BD
:1012A0009301B3018801737461727420736F756E5A
:1012B0006420646574656374696F6E007468697333
:0A12C000206C6576656C3A20000092
:00000001FF
