:100000000C945E000C9486000C9486000C94860080
:100010000C9486000C9486000C9486000C94860048
:100020000C9486000C9486000C9486000C94860038
:100030000C9486000C9486000C9486000C94860028
:100040000C94D9030C9486000C949F030C946403C5
:100050000C9486000C9486000C9486000C94860008
:100060000C9486000C9486000000000024002700F9
:100070002A0000000000250028002B0004040404CE
:100080000404040402020202020203030303030342
:10009000010204081020408001020408102001021F
:1000A00004081020000000070002010000030406FD
:1000B00000000000000000002304D10511241FBE31
:1000C000CFEFD8E0DEBFCDBF11E0A0E0B1E0EAEABB
:1000D000FEE002C005900D92AC32B107D9F722E0E4
:1000E000ACE2B1E001C01D92A336B207E1F710E027
:1000F000CDE5D0E004C02197FE010E944207CC3537
:10010000D107C9F70E9493040C94E9050C940000F0
:1001100090E0FC01EC55FF4F2491FC01E057FF4FAC
:100120003491FC01E458FF4FE491EE23B9F122230E
:1001300039F1233091F038F42130A9F0223001F563
:1001400084B58F7D12C0263091F02730A1F0243085
:10015000B9F4809180008F7D03C0809180008F77FB
:10016000809380000DC084B58F7784BD09C08091D5
:10017000B0008F7703C08091B0008F7D8093B00076
:10018000F0E0EE0FFF1FEE58FF4FA591B4918FB72F
:10019000F894EC9130953E233C938FBF0895E09105
:1001A000BF01F091C0010190F081E02D682F8FEB2D
:1001B00091E009948F929F92AF92BF92CF92DF927B
:1001C000EF92FF920F931F93CF93DF93FC014A01AD
:1001D000AA24BB24B82DC32ED42EE52EFF24AC2D8B
:1001E000922F8781882361F0889E40011124B92DC8
:1001F000C89E60011124AD2D289FE00111249D2F80
:10020000D584C285E084F184DC1208C09B01220FF2
:10021000331F620F731F6E0D7F1D16C0660F771F91
:10022000660F771F6E0D7F1D052F1127222733279D
:10023000EB01CD0DD11D882329F0089F90011124D9
:10024000232F01C0202F28838285EB01C80FD11DE9
:10025000B8838385EB01C80FD11DA8838485FB017A
:10026000E80FF11D9083DF91CF911F910F91FF90C7
:10027000EF90DF90CF90BF90AF909F908F900895B8
:100280000F931F93CF93DF93FC01A685B7858D0154
:10029000005C1F4FE8018881998101968F7399272F
:1002A000AD014E5B5F4FEA012881398182179307C8
:1002B000D1F3E80128813981A20FB31F6C93A68581
:1002C000B785A05CBF4F11969C938E93A689B78982
:1002D0002C9181E090E0078C02C0880F991F0A944E
:1002E000E2F7822B8C9381E081A30488F589E02DCD
:1002F00080818064808381E090E0DF91CF911F91C5
:100300000F910895FC0181A1882329F0A489B58962
:100310008C9186FFFBCF11A20895FC01A485B585C1
:10032000FD01E05CFF4F2081318132968081918117
:100330002817390779F080819181A80FB91F8C9116
:10034000208131812F5F3F4F2F73332731832083EB
:1003500090E008958FEF9FEF0895DC011C96ED91DA
:10036000FC911D97DF01A05CBF4F2D913C9111972F
:1003700012968D919C9111972817390739F08D911C
:100380009C91E80FF91F808190E008958FEF9FEF17
:100390000895FC0124853585F901E05CFF4F8081DB
:1003A0009181329620813181821B930B8F73992723
:1003B00008958FEB91E00C94C9010895CF92DF92DC
:1003C000EF92FF920F931F93CF93DF936C01EB019A
:1003D0007B01E40EF51E00E010E0CE15DF0561F0B4
:1003E0006991D601ED91FC910190F081E02DC6015B
:1003F0000995080F191FF1CFC801DF91CF911F9107
:100400000F91FF90EF90DF90CF900895CF93DF93FF
:1004100090E0FC01E057FF4F2491FC01E458FF4FAE
:100420008491882361F190E0880F991FFC01E859BD
:10043000FF4FC591D491FC01EE58FF4FA591B491A7
:10044000611109C09FB7F894888120958223888321
:10045000EC912E230BC0623061F49FB7F894388181
:10046000822F809583238883EC912E2B2C939FBF22
:1004700006C08FB7F894E8812E2B28838FBFDF91B9
:10048000CF910895CF93DF93EC018E8187FD06C055
:1004900061E00E9406028E810E94880081E08983CB
:1004A000DF91CF9108953FB7F89480912D019091FD
:1004B0002E01A0912F01B091300126B5A89B05C057
:1004C0002F3F19F00196A11DB11D3FBFBA2FA92FD3
:1004D000982F8827820F911DA11DB11DBC01CD0150
:1004E00042E0660F771F881F991F4A95D1F708953C
:1004F0008F929F92AF92BF92EF92FF920F931F93B2
:10050000CF93DF93CDB7DEB7A1970FB6F894DEBFD8
:100510000FBECDBF162F042F19A2423008F40AE0F7
:100520007E0121E2E20EF11C802E912CA12CB12C37
:10053000612FA50194010E942007029F1019112428
:1005400081E0E81AF1081A3014F4105D01C0195C5A
:10055000F7011083122F732FCA01232B242B252B75
:1005600039F7E114F10469F001900020E9F73197BF
:10057000AF014E195F09B7018FEB91E00E94DE01D8
:1005800002C080E090E0A1960FB6F894DEBF0FBEE7
:10059000CDBFDF91CF911F910F91FF90EF90BF9052
:1005A000AF909F908F900895CF93DF93EC01888553
:1005B0009985009711F00E9481068E8187FD05C004
:1005C00060E0DF91CF910C940602DF91CF91089506
:1005D000CF92DF92EF92FF921F93CF93DF93EC01C4
:1005E0007B01142F19821F821E861F86188A198A82
:1005F000C90146E0969587954A95E1F7482F4370E3
:100600004D87C90154E0969587955A95E1F7837017
:100610008A87B901769567957695679563706B873C
:10062000922F93709C8791E02F3F310511F008F0D5
:1006300090E09883481719F084E090E002C083E0CE
:1006400090E08E9D60018F9DD00C9E9DD00C11245A
:10065000DD82CC82C6010E94EC05998788870097CD
:1006600041F0A60160E070E00E941907FB82EA8277
:1006700004C01D821C821B821A821E8389818823EA
:1006800039F061E0812F0E940602812F0E948800CC
:10069000812F90E0FC01E458FF4FE491F0E0EE0F71
:1006A000FF1FEE58FF4F259134913B8B2A8BFC01A5
:1006B000E057FF4FE491EC8BDF91CF911F91FF90BA
:1006C000EF90DF90CF9008951F920F920FB60F9288
:1006D00011242F933F938F939F93EF93FF93209138
:1006E0007701309178018091790190917A012817F2
:1006F000390731F48091C1008F7D8093C10014C00F
:10070000E0917901F0917A01E95CFE4F20818091BE
:10071000790190917A0101968F73992790937A01CC
:10072000809379012093C600FF91EF919F918F9163
:100730003F912F910F900FBE0F901F9018951F9211
:100740000F920FB60F9211242F934F935F938F93B5
:100750009F93EF93FF938091C00082FD1CC0209176
:10076000C6008091BB019091BC0101968F739927BF
:100770004091BD015091BE018417950771F0E09141
:10078000BB01F091BC01E558FE4F20839093BC0162
:100790008093BB0102C08091C600FF91EF919F91B1
:1007A0008F915F914F912F910F900FBE0F901F90DF
:1007B00018951F920F920FB60F9211242F933F930B
:1007C0008F939F93AF93BF938091310190913201AA
:1007D000A0913301B091340130912C0123E0230F1B
:1007E0002D3720F40196A11DB11D05C026E8230F69
:1007F0000296A11DB11D20932C018093310190938D
:100800003201A0933301B093340180912D01909176
:100810002E01A0912F01B09130010196A11DB11DB3
:1008200080932D0190932E01A0932F01B09330015E
:10083000BF91AF919F918F913F912F910F900FBEDC
:100840000F901F901895EFEBF1E01382128288EE63
:1008500093E0A0E0B0E084839583A683B7838AE029
:1008600091E0918380838BE791E09587848787E38C
:1008700091E09787868785EC90E0918B808B84EC64
:1008800090E0938B828B80EC90E0958B848B81EC55
:1008900090E0978B868B82EC90E0918F808F86EC36
:1008A00090E0938F828F84E0848F83E0858F87E050
:1008B000868F85E0878F81E080A322E530E046E0E7
:1008C0006CE370E08AE492E00E94E80222E530E006
:1008D00046E06CE370E085E392E00E94E80222E5E6
:1008E00030E047E06CE370E080E292E00E94E802D2
:1008F00022E530E047E06CE370E08BE092E00E949C
:10090000E80222E530E046E066E070E086EF91E044
:100910000E94E80222E530E047E066E070E081EE08
:1009200091E00C94E802789484B5826084BD84B52B
:10093000816084BD85B5826085BD85B5816085BDDA
:1009400080916E00816080936E0010928100809192
:10095000810082608093810080918100816080931A
:100960008100809180008160809380008091B1003F
:1009700084608093B1008091B00081608093B0006A
:1009800080917A00846080937A0080917A008260FE
:1009900080937A0080917A00816080937A008091C0
:1009A0007A00806880937A001092C10060E08FE046
:1009B0000E94060286EF91E00E94420281EE91E0E1
:1009C0000E944202E091D301F091D40181E090E0D5
:1009D0009C010090DF0102C0220F331F0A94E2F74E
:1009E0002083E091CF01F091D0011082E091D101FC
:1009F000F091D2012FEC20831092E001E091D5011B
:100A0000F091D60140819C010090DB0102C0220FD1
:100A1000331F0A94E2F7242B2083E091D501F09153
:100A2000D60140819C010090DC0102C0220F331FDF
:100A30000A94E2F7242B2083E091D501F091D601AE
:100A400040819C010090DD0102C0220F331F0A94F7
:100A5000E2F7242B2083E091D501F091D60120818B
:100A60000090DE0102C0880F991F0A94E2F780957A
:100A70008223808345E150E066E171E08FEB91E0F5
:100A80000E94DE018DE00E94CF008AE00E94CF002C
:100A900011E48FB7F8944091310150913201609187
:100AA0003301709134018FBF10937C0080917A00E4
:100AB000806480937A0080917A0086FDFCCF8091DB
:100AC00078002091790090E0922B909336018093EA
:100AD00035016C01092E000CEE08FF0897FF0CC0D1
:100AE0008DE20E94CF0066277727CB016C197D0924
:100AF0008E099F094AE003C04AE0C701B6010E947F
:100B000078028DE00E94CF008AE00E94CF000E9410
:100B10005302EB018AE0C82ED12CE12CF12C0E946B
:100B200053026C1B7D0B683E734038F081E0C81A9D
:100B3000D108E108F108C851DC4FC114D104E10427
:100B4000F10469F7E0903501F0903601C0E0D0E0A3
:100B5000CE15DF051CF58091F8019091F901C817B9
:100B6000D90748F420E030E048EC50E0BE0186EFC1
:100B700091E00E94DA008091E3019091E401C817AE
:100B8000D90748F420E030E048EC50E0BE0181EEA7
:100B900091E00E94DA00CC59DF4FDACF0E94D901F0
:100BA00078CF81EE91E00E94D40286EF91E00E941E
:100BB000D4028BE092E00E94D40280E292E00E9494
:100BC000D40285E392E00E94D4028AE492E00C947D
:100BD000D402F8940C944807CF93DF9382309105A8
:100BE00010F482E090E0E0916102F091620220E076
:100BF00030E0C0E0D0E0309711F1408151814817DA
:100C00005907C0F04817590761F4828193812097F2
:100C100019F09B838A832BC09093620280936102B8
:100C200026C02115310519F04217530718F49A010F
:100C3000BE01DF01EF010280F381E02DDCCF211541
:100C4000310509F1281B390B2430310590F4129637
:100C50008D919C9113976115710521F0FB01938390
:100C6000828304C09093620280936102FD013296F8
:100C700044C0FD01E20FF31F81939193225031098B
:100C80002D933C933AC020915F0230916002232B58
:100C900041F42091020130910301309360022093CE
:100CA0005F0220910001309101012115310541F4CD
:100CB0002DB73EB74091040150910501241B350B1F
:100CC000E0915F02F0916002E217F307A0F42E1B9F
:100CD0003F0B2817390778F0AC014E5F5F4F2417A0
:100CE000350748F04E0F5F1F5093600240935F023C
:100CF0008193919302C0E0E0F0E0CF01DF91CF91CA
:100D000008950F931F93CF93DF93009709F48CC03E
:100D1000FC013297138212820091610210916202EB
:100D20000115110581F420813181820F931F2091DB
:100D30005F02309160022817390779F5F09360025D
:100D4000E0935F0271C0D80140E050E0AE17BF07EA
:100D500050F412962D913C911397AD012115310558
:100D600009F1D901F3CF9D01DA0133832283608138
:100D70007181860F971F8217930769F4EC01288110
:100D80003981260F371F2E5F3F4F318320838A81A1
:100D90009B8193838283452B29F4F0936202E09335
:100DA000610242C01396FC93EE931297ED014991B4
:100DB00059919E01240F351FE217F30771F48081CA
:100DC0009181840F951F029611969C938E93828138
:100DD000938113969C938E931297E0E0F0E0D801F4
:100DE00012968D919C911397009719F0F8018C0140
:100DF000F6CF8D919C9198012E5F3F4F820F931FEC
:100E000020915F02309160022817390769F430970A
:100E100029F4109262021092610202C013821282BF
:100E20001093600200935F02DF91CF911F910F91A9
:100E30000895DC0101C06D9341505040E0F70895E2
:100E4000A1E21A2EAA1BBB1BFD010DC0AA1FBB1FCE
:100E5000EE1FFF1FA217B307E407F50720F0A21B40
:100E6000B30BE40BF50B661F771F881F991F1A94AD
:100E700069F760957095809590959B01AC01BD01D7
:100E8000CF010895EE0FFF1F0590F491E02D099416
:100E900010E0CDE5D0E004C0FE010E94420721969B
:0A0EA000CE35D107C9F7F894FFCF53
:100EAA00000063022000000000004001DE01C901C9
:100EBA008D01AD018201737461727420736F756E56
:0C0ECA006420646574656374696F6E00D9
:00000001FF
